:100000000C945D000C9485000C9485000C94850084
:100010000C9485000C9485000C9485000C9485004C
:100020000C9485000C9485000C9485000C9492022D
:100030000C9485000C9485000C9485000C9485002C
:100040000C9448020C9485000C9485000C94850057
:100050000C9485000C9485000C9485000C9485000C
:100060000C9485000C9485000000000024002700FB
:100070002A0000000000250028002B0004040404CE
:100080000404040402020202020203030303030342
:10009000010204081020408001020408102001021F
:1000A00004081020000000080002010000030407FB
:1000B0000000000000000000860411241FBECFEFE6
:1000C000D8E0DEBFCDBF11E0A0E0B1E0E4E6FAE0A9
:1000D00002C005900D92A430B107D9F721E0A4E049
:1000E000B1E001C01D92A933B207E1F710E0CDE500
:1000F000D0E004C02197FE010E942A05CC35D1072B
:10010000C9F70E944E030C9430050C94000090E057
:10011000FC01EC55FF4F2491FC01E057FF4F349157
:10012000FC01E458FF4FE491EE23C9F0222339F09B
:10013000233001F1A8F4213019F1223029F1F0E047
:10014000EE0FFF1FEE58FF4FA591B4918FB7F894B3
:10015000EC91611126C030953E233C938FBF0895EA
:100160002730A9F02830C9F0243049F78091800069
:100170008F7D03C0809180008F7780938000DFCFD8
:1001800084B58F7784BDDBCF84B58F7DFBCF809125
:10019000B0008F778093B000D2CF8091B0008F7D78
:1001A000F9CF3E2BDACFCF93DF9390E0FC01E057FD
:1001B000FF4F249184589F4FFC0184918823D1F0F4
:1001C00090E0880F991FFC01E859FF4FA591B49169
:1001D000FC01EE58FF4FC591D49161110EC09FB73D
:1001E000F8948C91E22FE0958E238C932881E22362
:1001F000E8839FBFDF91CF9108958FB7F894EC917A
:10020000E22BEC938FBFF6CF8E3008F08E508770C4
:10021000806480937C0080917A00806480937A006F
:1002200080917A0086FDFCCF8091780090917900D2
:1002300008953FB7F89480912F0190913001A091DB
:100240003101B091320126B5A89B05C02F3F19F0AE
:100250000196A11DB11D3FBFBA2FA92F982F882746
:10026000BC01CD01620F711D811D911D42E0660F21
:10027000771F881F991F4A95D1F708958F929F92F3
:10028000AF92BF92CF92DF92EF92FF924B015C014F
:100290000E9419016B017C010E9419016C197D09F2
:1002A0008E099F09683E734081059105A8F321E0FE
:1002B000821A9108A108B10888EEC80E83E0D81E02
:1002C000E11CF11C81149104A104B10429F7FF90F1
:1002D000EF90DF90CF90BF90AF909F908F90089558
:1002E000CF92DF92EF92FF92CF93DF93EC016032D7
:1002F00082E07807CCF5653B710514F064EB70E0A3
:10030000898128E830E0281B310987FD3395220FC9
:10031000331F220F331F6901330FEE08FF088A8154
:1003200028E532E0281B310987FD3395220F331F62
:10033000220F331F032E000C440B550B2C193D09C3
:100340004E095F09DB0177FF02C0B0E0A0E00E9428
:10035000E50424EB30E040E050E00E94BB04C20E14
:10036000D31EE41EF51EB601E881EC3070F529813C
:1003700088E890E0821B910927FD9395880F991FCB
:10038000880F991F681779077CF02A8188E592E029
:10039000821B910927FD9395880F991F880F991F3C
:1003A000681779070CF4CB010297880F991F4FB794
:1003B000F8942E2F30E0F901EE0FFF1FE20FF31F2C
:1003C000EA5FFE4F928381834FBFDF91CF91FF9011
:1003D000EF90DF90CF9008951F93CF93DF93EC01C0
:1003E000162F88818C3008F04EC061E0812F0E946A
:1003F000D3008881282F30E0F901EE0FFF1FE20FB4
:10040000F31FEA5FFE4F1F736081607C612B608386
:1004100019821A822CE0622F0E941E05829FB00171
:10042000112430E020E0AB01420F531FFA01EE0F20
:10043000FF1FE40FF51FEA5FFE4F908196FD16C087
:100440002F5F3F4F2C30310571F781110FC0109293
:10045000800082E0809381001092850010928400D9
:10046000B19A80916F00826080936F00E8818E2F37
:1004700090E0FC01EE0FFF1FE80FF91FEA5FFE4F4F
:100480008081806480838881DF91CF911F9108955E
:100490001F920F920FB60F9211242F933F938F93B9
:1004A0009F93AF93BF9380912B0190912C01A091CA
:1004B0002D01B0912E0130912A0123E0230F2D3719
:1004C00058F50196A11DB11D20932A0180932B019F
:1004D00090932C01A0932D01B0932E0180912F01B8
:1004E00090913001A0913101B09132010196A11D8E
:1004F000B11D80932F0190933001A0933101B093EF
:100500003201BF91AF919F918F913F912F910F90A9
:100510000FBE0F901F90189526E8230F0296A11D7D
:10052000B11DD2CF1F920F920FB60F9211242F93AD
:100530003F934F935F936F937F938F939F93AF936B
:10054000BF93CF93DF93EF93FF9380910501C09109
:100550000401D0E087FF24C010928500109284002F
:10056000809105018F5F8093050180910501082E20
:10057000000C990B8C179D0724F4809105018C3099
:10058000C4F18091840090918500049680349C4948
:1005900008F47AC08091840090918500049676C01A
:1005A00080910501082E000C990B8C179D07C4F64D
:1005B000E09105018E2FEE0F990BFC01EE0FFF1F4E
:1005C000E80FF91FEA5FFE4F808186FFC9CFE091F7
:1005D00005018E2FEE0F990BFC01EE0FFF1FE80FA8
:1005E000F91FEA5FFE4F808160E08F730E948700F1
:1005F000B7CF2091840030918500E09105018E2FC6
:10060000EE0F990BFC01EE0FFF1FE80FF91FEA5FD9
:10061000FE4F81819281820F931F90938900809376
:100620008800E09105018E2FEE0F990BFC01EE0F73
:10063000FF1FE80FF91FEA5FFE4F808186FF11C0A0
:10064000E09105018E2FEE0F990BFC01EE0FFF1FBD
:10065000E80FF91FEA5FFE4F808161E08F730E940F
:100660008700FF91EF91DF91CF91BF91AF919F9163
:100670008F917F916F915F914F913F912F910F904B
:100680000FBE0F901F90189580E49CE9909389000D
:10069000809388008FEF80930501E3CF789484B531
:1006A000826084BD84B5816084BD85B5826085BD6E
:1006B00085B5816085BD80916E00816080936E00FC
:1006C00010928100809181008260809381008091EE
:1006D000810081608093810080918000816080939F
:1006E00080008091B10084608093B1008091B0005F
:1006F00081608093B00080917A00846080937A005A
:1007000080917A00826080937A0080917A00816083
:1007100080937A0080917A00806880937A001092AA
:10072000C10069E070E086E391E00E94EC016AE0BC
:1007300070E083E391E00E94EC0160E08EE00E94B3
:10074000D30060E08FE00E94D30060E080E10E946F
:10075000D30060E081E10E94D300609102017091BA
:10076000030186E391E00E947001609100017091A5
:10077000010183E391E00E94700160ED77E080E089
:1007800090E00E943E0180E0E82E80E0F82E04EB2D
:1007900010E08EE00E9404015C018FE00E940401E1
:1007A000EC0180E10E9404016C0181E10E940401DE
:1007B00095012C1B3D0B37FF03C031952195310965
:1007C000263031054CF19E012A193B0937FF03C041
:1007D00031952195310926303105F4F09E01265FCF
:1007E0003F4F2A153B0554F420910201309103013B
:1007F0002150310930930301209302012996CA1533
:10080000DB0554F020910201309103012F5F3F4F2F
:1008100030930301209302012091020130910301E2
:10082000253B310524F01093030100930201209130
:1008300002013091030137FF04C0109203011092AE
:1008400002019601281B390B37FF03C03195219512
:1008500031092630310544F19C012C193D0937FF3F
:1008600003C031952195310926303105ECF09C010A
:10087000265F3F4F2C153D0554F420910001309127
:1008800001012150310930930101209300010996A3
:100890008C159D054CF0809100019091010101960D
:1008A00090930101809300018091000190910101DA
:1008B000853B910524F01093010100930001809184
:1008C00000019091010197FF04C010920101109264
:1008D0000001609102017091030186E391E00E94A2
:1008E0007001609100017091010183E391E00E9429
:1008F00070016EE170E080E090E00E943E01E11442
:10090000F10409F446CF0E94000043CF8091040116
:100910008C3048F591E0980F909304018093360154
:1009200090E0FC01EE0FFF1FE80FF91FEA5FFE4F9A
:1009300088EB9BE092838183809104018C30B8F432
:1009400091E0980F909304018093330190E0FC01B3
:10095000EE0FFF1FE80FF91FEA5FFE4F88EB9BE0E9
:100960009283818308958FEF80933601E5CF8FEFD7
:10097000809333010895052E97FB1EF400940E9486
:10098000D20457FD07D00E94ED0407FC03D04EF4BB
:100990000C94D20450954095309521953F4F4F4F80
:1009A0005F4F089590958095709561957F4F8F4F1B
:1009B0009F4F08950E940F05A59F900DB49F900D25
:1009C000A49F800D911D11240895B7FF0C94DA04A3
:1009D0000E94DA04821B930B0895A1E21A2EAA1B2F
:1009E000BB1BFD010DC0AA1FBB1FEE1FFF1FA217DF
:1009F000B307E407F50720F0A21BB30BE40BF50BDC
:100A0000661F771F881F991F1A9469F76095709564
:100A1000809590959B01AC01BD01CF010895A29FE7
:100A2000B001B39FC001A39F700D811D1124911DC2
:100A3000B29F700D811D1124911D0895991B79E0BD
:100A400004C0991F961708F0961B881F7A95C9F75E
:100A500080950895EE0FFF1F0590F491E02D099405
:040A6000F894FFCF38
:040A64005A005A00DA
:00000001FF
